{
  "contractName": "BGC",
  "abi": [
    {
      "constant": true,
      "inputs": [
        {
          "name": "org_name",
          "type": "string"
        },
        {
          "name": "_password",
          "type": "address"
        }
      ],
      "name": "authenticateOrg",
      "outputs": [
        {
          "name": "",
          "type": "bool"
        }
      ],
      "payable": false,
      "stateMutability": "view",
      "type": "function"
    },
    {
      "constant": true,
      "inputs": [
        {
          "name": "_name",
          "type": "string"
        },
        {
          "name": "_regNumber",
          "type": "string"
        }
      ],
      "name": "isOrgExist",
      "outputs": [
        {
          "name": "",
          "type": "bool"
        }
      ],
      "payable": false,
      "stateMutability": "view",
      "type": "function"
    },
    {
      "constant": false,
      "inputs": [
        {
          "name": "_uname",
          "type": "string"
        },
        {
          "name": "_orgAddress",
          "type": "address"
        }
      ],
      "name": "addBGCRequest",
      "outputs": [],
      "payable": false,
      "stateMutability": "nonpayable",
      "type": "function"
    },
    {
      "constant": true,
      "inputs": [
        {
          "name": "",
          "type": "uint256"
        }
      ],
      "name": "orgs",
      "outputs": [
        {
          "name": "name",
          "type": "string"
        },
        {
          "name": "regNumber",
          "type": "string"
        },
        {
          "name": "password",
          "type": "address"
        },
        {
          "name": "empCount",
          "type": "uint256"
        }
      ],
      "payable": false,
      "stateMutability": "view",
      "type": "function"
    },
    {
      "constant": true,
      "inputs": [
        {
          "name": "_uname",
          "type": "string"
        },
        {
          "name": "_orgAddress",
          "type": "address"
        }
      ],
      "name": "isBGCAllowed",
      "outputs": [
        {
          "name": "",
          "type": "bool"
        }
      ],
      "payable": false,
      "stateMutability": "view",
      "type": "function"
    },
    {
      "constant": true,
      "inputs": [
        {
          "name": "_name",
          "type": "string"
        }
      ],
      "name": "getOrg",
      "outputs": [
        {
          "name": "",
          "type": "string"
        },
        {
          "name": "",
          "type": "string"
        },
        {
          "name": "",
          "type": "address"
        },
        {
          "name": "",
          "type": "uint256"
        }
      ],
      "payable": false,
      "stateMutability": "view",
      "type": "function"
    },
    {
      "constant": true,
      "inputs": [
        {
          "name": "_username",
          "type": "string"
        }
      ],
      "name": "isUserExist",
      "outputs": [
        {
          "name": "",
          "type": "bool"
        }
      ],
      "payable": false,
      "stateMutability": "view",
      "type": "function"
    },
    {
      "constant": false,
      "inputs": [
        {
          "name": "_name",
          "type": "string"
        },
        {
          "name": "_regNumber",
          "type": "string"
        },
        {
          "name": "_password",
          "type": "address"
        }
      ],
      "name": "addOrg",
      "outputs": [
        {
          "name": "",
          "type": "uint256"
        }
      ],
      "payable": false,
      "stateMutability": "nonpayable",
      "type": "function"
    },
    {
      "constant": true,
      "inputs": [],
      "name": "getOrgSize",
      "outputs": [
        {
          "name": "",
          "type": "uint256"
        }
      ],
      "payable": false,
      "stateMutability": "view",
      "type": "function"
    },
    {
      "constant": true,
      "inputs": [
        {
          "name": "_name",
          "type": "string"
        }
      ],
      "name": "viewEmployeeDetails",
      "outputs": [
        {
          "name": "",
          "type": "string"
        },
        {
          "name": "",
          "type": "string"
        },
        {
          "name": "",
          "type": "string"
        },
        {
          "name": "",
          "type": "address"
        }
      ],
      "payable": false,
      "stateMutability": "view",
      "type": "function"
    },
    {
      "constant": false,
      "inputs": [
        {
          "name": "_org",
          "type": "string"
        },
        {
          "name": "_username",
          "type": "string"
        },
        {
          "name": "_data",
          "type": "string"
        },
        {
          "name": "_email",
          "type": "string"
        }
      ],
      "name": "addEmployee",
      "outputs": [
        {
          "name": "",
          "type": "uint256"
        }
      ],
      "payable": false,
      "stateMutability": "nonpayable",
      "type": "function"
    },
    {
      "constant": false,
      "inputs": [
        {
          "name": "_username",
          "type": "string"
        },
        {
          "name": "_password",
          "type": "string"
        }
      ],
      "name": "setPassword",
      "outputs": [],
      "payable": false,
      "stateMutability": "nonpayable",
      "type": "function"
    },
    {
      "constant": true,
      "inputs": [
        {
          "name": "_username",
          "type": "string"
        },
        {
          "name": "_email",
          "type": "string"
        }
      ],
      "name": "isEmployeeExist",
      "outputs": [
        {
          "name": "",
          "type": "bool"
        }
      ],
      "payable": false,
      "stateMutability": "view",
      "type": "function"
    },
    {
      "constant": true,
      "inputs": [
        {
          "name": "",
          "type": "uint256"
        }
      ],
      "name": "emps",
      "outputs": [
        {
          "name": "password",
          "type": "string"
        },
        {
          "name": "username",
          "type": "string"
        },
        {
          "name": "data",
          "type": "string"
        },
        {
          "name": "email",
          "type": "string"
        },
        {
          "name": "currentOrgAddr",
          "type": "address"
        }
      ],
      "payable": false,
      "stateMutability": "view",
      "type": "function"
    },
    {
      "constant": true,
      "inputs": [],
      "name": "getEmployeeSize",
      "outputs": [
        {
          "name": "",
          "type": "uint256"
        }
      ],
      "payable": false,
      "stateMutability": "view",
      "type": "function"
    },
    {
      "constant": true,
      "inputs": [
        {
          "name": "_username",
          "type": "string"
        },
        {
          "name": "_password",
          "type": "string"
        }
      ],
      "name": "authenticateEmployee",
      "outputs": [
        {
          "name": "",
          "type": "bool"
        }
      ],
      "payable": false,
      "stateMutability": "view",
      "type": "function"
    },
    {
      "inputs": [],
      "payable": false,
      "stateMutability": "nonpayable",
      "type": "constructor"
    }
  ],
  "bytecode": "0x6060604052341561000f57600080fd5b6124828061001e6000396000f3006060604052600436106100e6576000357c0100000000000000000000000000000000000000000000000000000000900463ffffffff1680632896c88c146100eb57806340f839b81461017f57806347d19c12146102375780634f5c2e6c146102b35780636429c8971461042f578063696f541c146104c357806387eb60e51461063f5780638f362a3e146106b45780639158498f146107875780639fcebd65146107b0578063a734ec9014610991578063ca38649614610acb578063d86ac04a14610b6b578063e53b109e14610c23578063ecadd81014610eaa578063f8e3dead14610ed3575b600080fd5b34156100f657600080fd5b610165600480803590602001908201803590602001908080601f0160208091040260200160405190810160405280939291908181526020018383808284378201915050505050509190803573ffffffffffffffffffffffffffffffffffffffff16906020019091905050610f8b565b604051808215151515815260200191505060405180910390f35b341561018a57600080fd5b61021d600480803590602001908201803590602001908080601f0160208091040260200160405190810160405280939291908181526020018383808284378201915050505050509190803590602001908201803590602001908080601f01602080910402602001604051908101604052809392919081815260200183838082843782019150505050505091905050611065565b604051808215151515815260200191505060405180910390f35b341561024257600080fd5b6102b1600480803590602001908201803590602001908080601f0160208091040260200160405190810160405280939291908181526020018383808284378201915050505050509190803573ffffffffffffffffffffffffffffffffffffffff169060200190919050506110f9565b005b34156102be57600080fd5b6102d460048080359060200190919050506112ac565b6040518080602001806020018573ffffffffffffffffffffffffffffffffffffffff1673ffffffffffffffffffffffffffffffffffffffff1681526020018481526020018381038352878181546001816001161561010002031660029004815260200191508054600181600116156101000203166002900480156103995780601f1061036e57610100808354040283529160200191610399565b820191906000526020600020905b81548152906001019060200180831161037c57829003601f168201915b505083810382528681815460018160011615610100020316600290048152602001915080546001816001161561010002031660029004801561041c5780601f106103f15761010080835404028352916020019161041c565b820191906000526020600020905b8154815290600101906020018083116103ff57829003601f168201915b5050965050505050505060405180910390f35b341561043a57600080fd5b6104a9600480803590602001908201803590602001908080601f0160208091040260200160405190810160405280939291908181526020018383808284378201915050505050509190803573ffffffffffffffffffffffffffffffffffffffff16906020019091905050611309565b604051808215151515815260200191505060405180910390f35b34156104ce57600080fd5b61051e600480803590602001908201803590602001908080601f01602080910402602001604051908101604052809392919081815260200183838082843782019150505050505091905050611419565b6040518080602001806020018573ffffffffffffffffffffffffffffffffffffffff1673ffffffffffffffffffffffffffffffffffffffff168152602001848152602001838103835287818151815260200191508051906020019080838360005b8381101561059a57808201518184015260208101905061057f565b50505050905090810190601f1680156105c75780820380516001836020036101000a031916815260200191505b50838103825286818151815260200191508051906020019080838360005b838110156106005780820151818401526020810190506105e5565b50505050905090810190601f16801561062d5780820380516001836020036101000a031916815260200191505b50965050505050505060405180910390f35b341561064a57600080fd5b61069a600480803590602001908201803590602001908080601f01602080910402602001604051908101604052809392919081815260200183838082843782019150505050505091905050611668565b604051808215151515815260200191505060405180910390f35b34156106bf57600080fd5b610771600480803590602001908201803590602001908080601f0160208091040260200160405190810160405280939291908181526020018383808284378201915050505050509190803590602001908201803590602001908080601f0160208091040260200160405190810160405280939291908181526020018383808284378201915050505050509190803573ffffffffffffffffffffffffffffffffffffffff169060200190919050506116ca565b6040518082815260200191505060405180910390f35b341561079257600080fd5b61079a6117ca565b6040518082815260200191505060405180910390f35b34156107bb57600080fd5b61080b600480803590602001908201803590602001908080601f016020809104026020016040519081016040528093929190818152602001838380828437820191505050505050919050506117d6565b604051808060200180602001806020018573ffffffffffffffffffffffffffffffffffffffff1673ffffffffffffffffffffffffffffffffffffffff168152602001848103845288818151815260200191508051906020019080838360005b8381101561088557808201518184015260208101905061086a565b50505050905090810190601f1680156108b25780820380516001836020036101000a031916815260200191505b50848103835287818151815260200191508051906020019080838360005b838110156108eb5780820151818401526020810190506108d0565b50505050905090810190601f1680156109185780820380516001836020036101000a031916815260200191505b50848103825286818151815260200191508051906020019080838360005b83811015610951578082015181840152602081019050610936565b50505050905090810190601f16801561097e5780820380516001836020036101000a031916815260200191505b5097505050505050505060405180910390f35b341561099c57600080fd5b610ab5600480803590602001908201803590602001908080601f0160208091040260200160405190810160405280939291908181526020018383808284378201915050505050509190803590602001908201803590602001908080601f0160208091040260200160405190810160405280939291908181526020018383808284378201915050505050509190803590602001908201803590602001908080601f0160208091040260200160405190810160405280939291908181526020018383808284378201915050505050509190803590602001908201803590602001908080601f01602080910402602001604051908101604052809392919081815260200183838082843782019150505050505091905050611ac7565b6040518082815260200191505060405180910390f35b3415610ad657600080fd5b610b69600480803590602001908201803590602001908080601f0160208091040260200160405190810160405280939291908181526020018383808284378201915050505050509190803590602001908201803590602001908080601f01602080910402602001604051908101604052809392919081815260200183838082843782019150505050505091905050611d27565b005b3415610b7657600080fd5b610c09600480803590602001908201803590602001908080601f0160208091040260200160405190810160405280939291908181526020018383808284378201915050505050509190803590602001908201803590602001908080601f01602080910402602001604051908101604052809392919081815260200183838082843782019150505050505091905050611dae565b604051808215151515815260200191505060405180910390f35b3415610c2e57600080fd5b610c446004808035906020019091905050611e42565b60405180806020018060200180602001806020018673ffffffffffffffffffffffffffffffffffffffff1673ffffffffffffffffffffffffffffffffffffffff16815260200185810385528a818154600181600116156101000203166002900481526020019150805460018160011615610100020316600290048015610d0b5780601f10610ce057610100808354040283529160200191610d0b565b820191906000526020600020905b815481529060010190602001808311610cee57829003601f168201915b5050858103845289818154600181600116156101000203166002900481526020019150805460018160011615610100020316600290048015610d8e5780601f10610d6357610100808354040283529160200191610d8e565b820191906000526020600020905b815481529060010190602001808311610d7157829003601f168201915b5050858103835288818154600181600116156101000203166002900481526020019150805460018160011615610100020316600290048015610e115780601f10610de657610100808354040283529160200191610e11565b820191906000526020600020905b815481529060010190602001808311610df457829003601f168201915b5050858103825287818154600181600116156101000203166002900481526020019150805460018160011615610100020316600290048015610e945780601f10610e6957610100808354040283529160200191610e94565b820191906000526020600020905b815481529060010190602001808311610e7757829003601f168201915b5050995050505050505050505060405180910390f35b3415610eb557600080fd5b610ebd611ea3565b6040518082815260200191505060405180910390f35b3415610ede57600080fd5b610f71600480803590602001908201803590602001908080601f0160208091040260200160405190810160405280939291908181526020018383808284378201915050505050509190803590602001908201803590602001908080601f01602080910402602001604051908101604052809392919081815260200183838082843782019150505050505091905050611eb0565b604051808215151515815260200191505060405180910390f35b600080600090505b60008054905081101561105957610fc9600082815481101515610fb257fe5b906000526020600020906004020160000185611f44565b801561104057508273ffffffffffffffffffffffffffffffffffffffff16600082815481101515610ff657fe5b906000526020600020906004020160020160009054906101000a900473ffffffffffffffffffffffffffffffffffffffff1673ffffffffffffffffffffffffffffffffffffffff16145b1561104e576001915061105e565b806001019050610f93565b600091505b5092915050565b600080600090505b6000805490508110156110ed576110a360008281548110151561108c57fe5b906000526020600020906004020160000185611f44565b80156110d457506110d36000828154811015156110bc57fe5b906000526020600020906004020160010184611f44565b5b156110e257600191506110f2565b80600101905061106d565b600091505b5092915050565b60008090505b6002805490508110156111c15761113560028281548110151561111e57fe5b906000526020600020906002020160000184611f44565b80156111ac57508173ffffffffffffffffffffffffffffffffffffffff1660028281548110151561116257fe5b906000526020600020906002020160010160009054906101000a900473ffffffffffffffffffffffffffffffffffffffff1673ffffffffffffffffffffffffffffffffffffffff16145b156111b6576112a7565b8060010190506110ff565b600280548060010182816111d591906120cd565b916000526020600020906002020160006060604051908101604052808781526020018673ffffffffffffffffffffffffffffffffffffffff168152602001600015158152509091909150600082015181600001908051906020019061123b9291906120ff565b5060208201518160010160006101000a81548173ffffffffffffffffffffffffffffffffffffffff021916908373ffffffffffffffffffffffffffffffffffffffff16021790555060408201518160010160146101000a81548160ff0219169083151502179055505050505b505050565b6000818154811015156112bb57fe5b9060005260206000209060040201600091509050806000019080600101908060020160009054906101000a900473ffffffffffffffffffffffffffffffffffffffff16908060030154905084565b600080600090505b60028054905081101561140d5761134760028281548110151561133057fe5b906000526020600020906002020160000185611f44565b80156113be57508273ffffffffffffffffffffffffffffffffffffffff1660028281548110151561137457fe5b906000526020600020906002020160010160009054906101000a900473ffffffffffffffffffffffffffffffffffffffff1673ffffffffffffffffffffffffffffffffffffffff16145b80156113f457506002818154811015156113d457fe5b906000526020600020906002020160010160149054906101000a900460ff165b156114025760019150611412565b806001019050611311565b600091505b5092915050565b61142161217f565b61142961217f565b60008060008090505b60008054905081101561165f5761146860008281548110151561145157fe5b906000526020600020906004020160000187611f44565b156116545760008181548110151561147c57fe5b906000526020600020906004020160000160008281548110151561149c57fe5b90600052602060002090600402016001016000838154811015156114bc57fe5b906000526020600020906004020160020160009054906101000a900473ffffffffffffffffffffffffffffffffffffffff166000848154811015156114fd57fe5b906000526020600020906004020160030154838054600181600116156101000203166002900480601f0160208091040260200160405190810160405280929190818152602001828054600181600116156101000203166002900480156115a45780601f10611579576101008083540402835291602001916115a4565b820191906000526020600020905b81548152906001019060200180831161158757829003601f168201915b50505050509350828054600181600116156101000203166002900480601f0160208091040260200160405190810160405280929190818152602001828054600181600116156101000203166002900480156116405780601f1061161557610100808354040283529160200191611640565b820191906000526020600020905b81548152906001019060200180831161162357829003601f168201915b505050505092509450945094509450611660565b806001019050611432565b5b509193509193565b600080600090505b6001805490508110156116bf576116a660018281548110151561168f57fe5b906000526020600020906005020160010184611f44565b156116b457600191506116c4565b806001019050611670565b600091505b50919050565b60008080548060010182816116df9190612193565b916000526020600020906004020160006080604051908101604052808881526020018781526020018673ffffffffffffffffffffffffffffffffffffffff1681526020016000815250909190915060008201518160000190805190602001906117499291906120ff565b5060208201518160010190805190602001906117669291906120ff565b5060408201518160020160006101000a81548173ffffffffffffffffffffffffffffffffffffffff021916908373ffffffffffffffffffffffffffffffffffffffff1602179055506060820151816003015550505060008054905090509392505050565b60008080549050905090565b6117de61217f565b6117e661217f565b6117ee61217f565b600080600090505b600180549050811015611abe5761182c60018281548110151561181557fe5b906000526020600020906005020160010187611f44565b15611ab35760018181548110151561184057fe5b906000526020600020906005020160010160018281548110151561186057fe5b906000526020600020906005020160020160018381548110151561188057fe5b90600052602060002090600502016003016001848154811015156118a057fe5b906000526020600020906005020160040160009054906101000a900473ffffffffffffffffffffffffffffffffffffffff16838054600181600116156101000203166002900480601f0160208091040260200160405190810160405280929190818152602001828054600181600116156101000203166002900480156119675780601f1061193c57610100808354040283529160200191611967565b820191906000526020600020905b81548152906001019060200180831161194a57829003601f168201915b50505050509350828054600181600116156101000203166002900480601f016020809104026020016040519081016040528092919081815260200182805460018160011615610100020316600290048015611a035780601f106119d857610100808354040283529160200191611a03565b820191906000526020600020905b8154815290600101906020018083116119e657829003601f168201915b50505050509250818054600181600116156101000203166002900480601f016020809104026020016040519081016040528092919081815260200182805460018160011615610100020316600290048015611a9f5780601f10611a7457610100808354040283529160200191611a9f565b820191906000526020600020905b815481529060010190602001808311611a8257829003601f168201915b505050505091509450945094509450611abf565b8060010190506117f6565b5b509193509193565b60008060018054806001018281611ade91906121c5565b9160005260206000209060050201600060a060405190810160405280602060405190810160405280600081525081526020018981526020018881526020018781526020013373ffffffffffffffffffffffffffffffffffffffff1681525090919091506000820151816000019080519060200190611b5d9291906120ff565b506020820151816001019080519060200190611b7a9291906120ff565b506040820151816002019080519060200190611b979291906120ff565b506060820151816003019080519060200190611bb49291906120ff565b5060808201518160040160006101000a81548173ffffffffffffffffffffffffffffffffffffffff021916908373ffffffffffffffffffffffffffffffffffffffff160217905550505050600090505b600080549050811015611d1957611c3a600082815481101515611c2357fe5b906000526020600020906004020160000187611f44565b8015611cb157503373ffffffffffffffffffffffffffffffffffffffff16600082815481101515611c6757fe5b906000526020600020906004020160020160009054906101000a900473ffffffffffffffffffffffffffffffffffffffff1673ffffffffffffffffffffffffffffffffffffffff16145b15611d0e57600081815481101515611cc557fe5b906000526020600020906004020160030160008154809291906001019190505550600081815481101515611cf557fe5b9060005260206000209060040201600301549150611d1e565b806001019050611c04565b600091505b50949350505050565b60008090505b600180549050811015611da957611d63600182815481101515611d4c57fe5b906000526020600020906005020160010184611f44565b15611d9e5781600182815481101515611d7857fe5b90600052602060002090600502016000019080519060200190611d9c9291906121f7565b505b806001019050611d2d565b505050565b600080600090505b600180549050811015611e3657611dec600182815481101515611dd557fe5b906000526020600020906005020160010185611f44565b8015611e1d5750611e1c600182815481101515611e0557fe5b906000526020600020906005020160030184611f44565b5b15611e2b5760019150611e3b565b806001019050611db6565b600091505b5092915050565b600181815481101515611e5157fe5b906000526020600020906005020160009150905080600001908060010190806002019080600301908060040160009054906101000a900473ffffffffffffffffffffffffffffffffffffffff16905085565b6000600180549050905090565b600080600090505b600180549050811015611f3857611eee600182815481101515611ed757fe5b906000526020600020906005020160010185611f44565b8015611f1f5750611f1e600182815481101515611f0757fe5b906000526020600020906005020160000184611f44565b5b15611f2d5760019150611f3d565b806001019050611eb8565b600091505b5092915050565b600080611f4f612277565b6000859250849150815183805460018160011615610100020316600290049050141515611f7f57600093506120c4565b600090505b828054600181600116156101000203166002900490508110156120bf578181815181101515611faf57fe5b9060200101517f010000000000000000000000000000000000000000000000000000000000000090047f0100000000000000000000000000000000000000000000000000000000000000027effffffffffffffffffffffffffffffffffffffffffffffffffffffffffffff19168382815460018160011615610100020316600290048110151561203b57fe5b81546001161561205a5790600052602060002090602091828204019190065b9054901a7f0100000000000000000000000000000000000000000000000000000000000000027effffffffffffffffffffffffffffffffffffffffffffffffffffffffffffff19161415156120b257600093506120c4565b8080600101915050611f84565b600193505b50505092915050565b8154818355818115116120fa576002028160020283600052602060002091820191016120f9919061228b565b5b505050565b828054600181600116156101000203166002900490600052602060002090601f016020900481019282601f1061214057805160ff191683800117855561216e565b8280016001018555821561216e579182015b8281111561216d578251825591602001919060010190612152565b5b50905061217b91906122f5565b5090565b602060405190810160405280600081525090565b8154818355818115116121c0576004028160040283600052602060002091820191016121bf919061231a565b5b505050565b8154818355818115116121f2576005028160050283600052602060002091820191016121f19190612388565b5b505050565b828054600181600116156101000203166002900490600052602060002090601f016020900481019282601f1061223857805160ff1916838001178555612266565b82800160010185558215612266579182015b8281111561226557825182559160200191906001019061224a565b5b50905061227391906122f5565b5090565b602060405190810160405280600081525090565b6122f291905b808211156122ee57600080820160006122aa919061240e565b6001820160006101000a81549073ffffffffffffffffffffffffffffffffffffffff02191690556001820160146101000a81549060ff021916905550600201612291565b5090565b90565b61231791905b808211156123135760008160009055506001016122fb565b5090565b90565b61238591905b808211156123815760008082016000612339919061240e565b600182016000612349919061240e565b6002820160006101000a81549073ffffffffffffffffffffffffffffffffffffffff0219169055600382016000905550600401612320565b5090565b90565b61240b91905b8082111561240757600080820160006123a7919061240e565b6001820160006123b7919061240e565b6002820160006123c7919061240e565b6003820160006123d7919061240e565b6004820160006101000a81549073ffffffffffffffffffffffffffffffffffffffff02191690555060050161238e565b5090565b90565b50805460018160011615610100020316600290046000825580601f106124345750612453565b601f01602090049060005260206000209081019061245291906122f5565b5b505600a165627a7a723058203f4315c056624e82227ce80a0c4196abddc971465266be8cffbd97f42122df200029",
  "source": "pragma solidity ^0.4.18;\r\n\r\nimport \"./StringUtils.sol\";\r\n\r\ncontract BGC {\r\n\r\n  struct Organization {\r\n    string name;\r\n    string regNumber;\r\n    address password;\r\n    uint256 empCount;\r\n  }\r\n\r\n  struct Employee {\r\n        string password;\r\n        string username;\r\n        string data;\r\n        string email;\r\n        address currentOrgAddr;\r\n    }\r\n\r\n  struct Request {\r\n       string uname;\r\n       address orgAddress;\r\n       bool isAllowed;\r\n   }\r\n\r\n  Organization[] public orgs;\r\n  Employee[] public emps;\r\n  Request[] bgcRequests;\r\n  function BGC() public {\r\n  }\r\n\r\n  function isOrgExist(string _name,string _regNumber) public view returns (bool) {\r\n    for (uint256 i = 0; i < orgs.length; ++i) {\r\n         if(StringUtils.equal(orgs[i].name, _name) && StringUtils.equal(orgs[i].regNumber, _regNumber))\r\n          return true;\r\n    }\r\n    return false;\r\n  }\r\n\r\n  function addOrg(string _name,string _regNumber,address _password) public returns(uint256) {\r\n     orgs.push(Organization(_name,_regNumber,_password,0));\r\n     return orgs.length;\r\n  }\r\n\r\n  function getOrg(string _name) public view returns (string,string,address,uint256) {\r\n    for(uint256 i=0; i < orgs.length; ++i) {\r\n         if(StringUtils.equal(orgs[i].name, _name))\r\n            return (orgs[i].name,orgs[i].regNumber,orgs[i].password,orgs[i].empCount);\r\n    }\r\n  }\r\n\r\n  function getOrgSize() public view returns (uint) {\r\n    return orgs.length;\r\n  }\r\n\r\n  function authenticateOrg(string org_name, address _password) public view returns (bool) {\r\n    for (uint256 i = 0; i < orgs.length; ++i) {\r\n         if(StringUtils.equal(orgs[i].name, org_name) && orgs[i].password == _password)\r\n          return true;\r\n    }\r\n    return false;\r\n  }\r\n\r\n  ///////////////////////Employee ////////////////\r\n   function addEmployee(string _org,string _username,string _data,string _email) public returns (uint256) {\r\n      emps.push(Employee( \"\", _username, _data, _email,msg.sender));\r\n      for(uint256 i=0; i < orgs.length; ++i) {\r\n           if(StringUtils.equal(orgs[i].name, _org) && orgs[i].password == msg.sender){\r\n               orgs[i].empCount++;\r\n              return orgs[i].empCount;\r\n           }\r\n      }\r\n      return 0;\r\n    }\r\n\r\n    function isEmployeeExist(string _username,string _email) public view returns (bool) {\r\n      for (uint256 i = 0; i < emps.length; ++i) {\r\n           if(StringUtils.equal(emps[i].username, _username) && StringUtils.equal(emps[i].email, _email))\r\n            return true;\r\n      }\r\n      return false;\r\n    }\r\n\r\n    function getEmployeeSize() public view returns (uint) {\r\n      return emps.length;\r\n    }\r\n\r\n    function isUserExist(string _username) public view returns (bool) {\r\n       for (uint256 i = 0; i < emps.length; ++i) {\r\n            if(StringUtils.equal(emps[i].username, _username))\r\n              return true;\r\n       }\r\n       return false;\r\n     }\r\n\r\n     function setPassword(string _username,string _password) public {\r\n           for (uint256 i = 0; i < emps.length; ++i) {\r\n                if(StringUtils.equal(emps[i].username, _username))\r\n                 emps[i].password=_password;\r\n           }\r\n     }\r\n\r\n    function authenticateEmployee(string _username, string _password) public view returns (bool) {\r\n           for (uint256 i = 0; i < emps.length; ++i) {\r\n                if (StringUtils.equal(emps[i].username, _username) && StringUtils.equal(emps[i].password, _password))\r\n                  return true;\r\n           }\r\n           return false;\r\n    }\r\n\r\n    function viewEmployeeDetails(string _name) public view returns (string,string,string,address) {\r\n      for(uint256 i=0; i < emps.length; ++i) {\r\n           if(StringUtils.equal(emps[i].username, _name))\r\n              return (emps[i].username, emps[i].data, emps[i].email, emps[i].currentOrgAddr);\r\n      }\r\n    }\r\n\r\n///////////////////////////////BGC//////////////////////////\r\n    function addBGCRequest(string _uname, address _orgAddress) public {\r\n             for(uint256 i = 0; i < bgcRequests.length; ++ i) {\r\n                 if(StringUtils.equal(bgcRequests[i].uname, _uname) && bgcRequests[i].orgAddress == _orgAddress) {\r\n                     return;\r\n                 }\r\n             }\r\n             bgcRequests.push(Request(_uname, _orgAddress, false));\r\n    }\r\n\r\n    function isBGCAllowed(string _uname, address _orgAddress) public view returns(bool) {\r\n       for(uint256 i = 0; i < bgcRequests.length; ++i) {\r\n           if(StringUtils.equal(bgcRequests[i].uname, _uname)\r\n              && bgcRequests[i].orgAddress == _orgAddress\r\n              && bgcRequests[i].isAllowed) {\r\n               return true;\r\n           }\r\n       }\r\n       return false;\r\n   }\r\n\r\n\r\n\r\n\r\n\r\n\r\n\r\n}\r\n",
  "sourcePath": "G:\\bgc-app\\contracts\\BGC.sol",
  "compiler": {
    "name": "solc",
    "version": "0.4.18+commit.9cf6e910.Emscripten.clang"
  },
  "schemaVersion": "1.0.1",
  "updatedAt": "2018-04-28T10:15:24.888Z"
}