{
  "contractName": "BGC",
  "abi": [
    {
      "constant": true,
      "inputs": [],
      "name": "getEmployeeBGCSize",
      "outputs": [
        {
          "name": "",
          "type": "uint256"
        }
      ],
      "payable": false,
      "stateMutability": "view",
      "type": "function"
    },
    {
      "constant": true,
      "inputs": [
        {
          "name": "uname",
          "type": "string"
        }
      ],
      "name": "pendingBGCRequests",
      "outputs": [
        {
          "name": "",
          "type": "address"
        }
      ],
      "payable": false,
      "stateMutability": "view",
      "type": "function"
    },
    {
      "constant": true,
      "inputs": [
        {
          "name": "_address",
          "type": "address"
        }
      ],
      "name": "getOrgByAddress",
      "outputs": [
        {
          "name": "",
          "type": "string"
        },
        {
          "name": "",
          "type": "string"
        },
        {
          "name": "",
          "type": "address"
        },
        {
          "name": "",
          "type": "uint256"
        }
      ],
      "payable": false,
      "stateMutability": "view",
      "type": "function"
    },
    {
      "constant": false,
      "inputs": [
        {
          "name": "_uname",
          "type": "string"
        },
        {
          "name": "_orgAddress",
          "type": "address"
        },
        {
          "name": "isAllowed",
          "type": "bool"
        }
      ],
      "name": "setBGCRequestAllow",
      "outputs": [],
      "payable": false,
      "stateMutability": "nonpayable",
      "type": "function"
    },
    {
      "constant": true,
      "inputs": [
        {
          "name": "org_name",
          "type": "string"
        },
        {
          "name": "_password",
          "type": "address"
        }
      ],
      "name": "authenticateOrg",
      "outputs": [
        {
          "name": "",
          "type": "bool"
        }
      ],
      "payable": false,
      "stateMutability": "view",
      "type": "function"
    },
    {
      "constant": true,
      "inputs": [
        {
          "name": "_name",
          "type": "string"
        },
        {
          "name": "_regNumber",
          "type": "string"
        }
      ],
      "name": "isOrgExist",
      "outputs": [
        {
          "name": "",
          "type": "bool"
        }
      ],
      "payable": false,
      "stateMutability": "view",
      "type": "function"
    },
    {
      "constant": false,
      "inputs": [
        {
          "name": "_uname",
          "type": "string"
        },
        {
          "name": "_orgAddress",
          "type": "address"
        }
      ],
      "name": "addBGCRequest",
      "outputs": [],
      "payable": false,
      "stateMutability": "nonpayable",
      "type": "function"
    },
    {
      "constant": false,
      "inputs": [
        {
          "name": "_org",
          "type": "string"
        },
        {
          "name": "_username",
          "type": "string"
        },
        {
          "name": "_email",
          "type": "string"
        }
      ],
      "name": "deleteEmployee",
      "outputs": [],
      "payable": false,
      "stateMutability": "nonpayable",
      "type": "function"
    },
    {
      "constant": true,
      "inputs": [
        {
          "name": "_uname",
          "type": "string"
        },
        {
          "name": "_orgAddress",
          "type": "address"
        }
      ],
      "name": "isBGCAllowed",
      "outputs": [
        {
          "name": "",
          "type": "bool"
        }
      ],
      "payable": false,
      "stateMutability": "view",
      "type": "function"
    },
    {
      "constant": true,
      "inputs": [
        {
          "name": "_name",
          "type": "string"
        }
      ],
      "name": "getOrg",
      "outputs": [
        {
          "name": "",
          "type": "string"
        },
        {
          "name": "",
          "type": "string"
        },
        {
          "name": "",
          "type": "address"
        },
        {
          "name": "",
          "type": "uint256"
        }
      ],
      "payable": false,
      "stateMutability": "view",
      "type": "function"
    },
    {
      "constant": true,
      "inputs": [
        {
          "name": "_username",
          "type": "string"
        }
      ],
      "name": "isUserExist",
      "outputs": [
        {
          "name": "",
          "type": "bool"
        }
      ],
      "payable": false,
      "stateMutability": "view",
      "type": "function"
    },
    {
      "constant": false,
      "inputs": [
        {
          "name": "_name",
          "type": "string"
        },
        {
          "name": "_regNumber",
          "type": "string"
        },
        {
          "name": "_password",
          "type": "address"
        }
      ],
      "name": "addOrg",
      "outputs": [
        {
          "name": "",
          "type": "uint256"
        }
      ],
      "payable": false,
      "stateMutability": "nonpayable",
      "type": "function"
    },
    {
      "constant": true,
      "inputs": [],
      "name": "getOrgSize",
      "outputs": [
        {
          "name": "",
          "type": "uint256"
        }
      ],
      "payable": false,
      "stateMutability": "view",
      "type": "function"
    },
    {
      "constant": true,
      "inputs": [
        {
          "name": "_name",
          "type": "string"
        }
      ],
      "name": "viewEmployeeDetails",
      "outputs": [
        {
          "name": "",
          "type": "string"
        },
        {
          "name": "",
          "type": "string"
        },
        {
          "name": "",
          "type": "string"
        },
        {
          "name": "",
          "type": "address"
        }
      ],
      "payable": false,
      "stateMutability": "view",
      "type": "function"
    },
    {
      "constant": false,
      "inputs": [
        {
          "name": "_org",
          "type": "string"
        },
        {
          "name": "_username",
          "type": "string"
        },
        {
          "name": "_data",
          "type": "string"
        },
        {
          "name": "_email",
          "type": "string"
        }
      ],
      "name": "addEmployee",
      "outputs": [
        {
          "name": "",
          "type": "uint256"
        }
      ],
      "payable": false,
      "stateMutability": "nonpayable",
      "type": "function"
    },
    {
      "constant": false,
      "inputs": [
        {
          "name": "_username",
          "type": "string"
        },
        {
          "name": "_password",
          "type": "string"
        }
      ],
      "name": "setPassword",
      "outputs": [],
      "payable": false,
      "stateMutability": "nonpayable",
      "type": "function"
    },
    {
      "constant": false,
      "inputs": [
        {
          "name": "_org",
          "type": "string"
        },
        {
          "name": "_username",
          "type": "string"
        },
        {
          "name": "_data",
          "type": "string"
        },
        {
          "name": "_email",
          "type": "string"
        }
      ],
      "name": "editEmployee",
      "outputs": [],
      "payable": false,
      "stateMutability": "nonpayable",
      "type": "function"
    },
    {
      "constant": true,
      "inputs": [
        {
          "name": "_username",
          "type": "string"
        },
        {
          "name": "_email",
          "type": "string"
        }
      ],
      "name": "isEmployeeExist",
      "outputs": [
        {
          "name": "",
          "type": "bool"
        }
      ],
      "payable": false,
      "stateMutability": "view",
      "type": "function"
    },
    {
      "constant": true,
      "inputs": [],
      "name": "getEmployeeSize",
      "outputs": [
        {
          "name": "",
          "type": "uint256"
        }
      ],
      "payable": false,
      "stateMutability": "view",
      "type": "function"
    },
    {
      "constant": true,
      "inputs": [
        {
          "name": "_username",
          "type": "string"
        },
        {
          "name": "_password",
          "type": "string"
        }
      ],
      "name": "authenticateEmployee",
      "outputs": [
        {
          "name": "",
          "type": "bool"
        }
      ],
      "payable": false,
      "stateMutability": "view",
      "type": "function"
    },
    {
      "inputs": [],
      "payable": false,
      "stateMutability": "nonpayable",
      "type": "constructor"
    }
  ],
  "bytecode": "0x6060604052341561000f57600080fd5b612e0a8061001e6000396000f300606060405260043610610112576000357c0100000000000000000000000000000000000000000000000000000000900463ffffffff1680631658aa69146101175780631ade8161146101405780631eb3516e146101dd5780632645e32f146103355780632896c88c146103bc57806340f839b81461045057806347d19c1214610508578063573af67c146105845780636429c89714610667578063696f541c146106fb57806387eb60e5146108775780638f362a3e146108ec5780639158498f146109bf5780639fcebd65146109e8578063a734ec9014610bc9578063ca38649614610d03578063d22a9d1614610da3578063d86ac04a14610ec9578063ecadd81014610f81578063f8e3dead14610faa575b600080fd5b341561012257600080fd5b61012a611062565b6040518082815260200191505060405180910390f35b341561014b57600080fd5b61019b600480803590602001908201803590602001908080601f0160208091040260200160405190810160405280939291908181526020018383808284378201915050505050509190505061106f565b604051808273ffffffffffffffffffffffffffffffffffffffff1673ffffffffffffffffffffffffffffffffffffffff16815260200191505060405180910390f35b34156101e857600080fd5b610214600480803573ffffffffffffffffffffffffffffffffffffffff16906020019091905050611149565b6040518080602001806020018573ffffffffffffffffffffffffffffffffffffffff1673ffffffffffffffffffffffffffffffffffffffff168152602001848152602001838103835287818151815260200191508051906020019080838360005b83811015610290578082015181840152602081019050610275565b50505050905090810190601f1680156102bd5780820380516001836020036101000a031916815260200191505b50838103825286818151815260200191508051906020019080838360005b838110156102f65780820151818401526020810190506102db565b50505050905090810190601f1680156103235780820380516001836020036101000a031916815260200191505b50965050505050505060405180910390f35b341561034057600080fd5b6103ba600480803590602001908201803590602001908080601f0160208091040260200160405190810160405280939291908181526020018383808284378201915050505050509190803573ffffffffffffffffffffffffffffffffffffffff1690602001909190803515159060200190919050506113de565b005b34156103c757600080fd5b610436600480803590602001908201803590602001908080601f0160208091040260200160405190810160405280939291908181526020018383808284378201915050505050509190803573ffffffffffffffffffffffffffffffffffffffff16906020019091905050611625565b604051808215151515815260200191505060405180910390f35b341561045b57600080fd5b6104ee600480803590602001908201803590602001908080601f0160208091040260200160405190810160405280939291908181526020018383808284378201915050505050509190803590602001908201803590602001908080601f016020809104026020016040519081016040528093929190818152602001838380828437820191505050505050919050506116ff565b604051808215151515815260200191505060405180910390f35b341561051357600080fd5b610582600480803590602001908201803590602001908080601f0160208091040260200160405190810160405280939291908181526020018383808284378201915050505050509190803573ffffffffffffffffffffffffffffffffffffffff16906020019091905050611793565b005b341561058f57600080fd5b610665600480803590602001908201803590602001908080601f0160208091040260200160405190810160405280939291908181526020018383808284378201915050505050509190803590602001908201803590602001908080601f0160208091040260200160405190810160405280939291908181526020018383808284378201915050505050509190803590602001908201803590602001908080601f01602080910402602001604051908101604052809392919081815260200183838082843782019150505050505091905050611946565b005b341561067257600080fd5b6106e1600480803590602001908201803590602001908080601f0160208091040260200160405190810160405280939291908181526020018383808284378201915050505050509190803573ffffffffffffffffffffffffffffffffffffffff16906020019091905050611b48565b604051808215151515815260200191505060405180910390f35b341561070657600080fd5b610756600480803590602001908201803590602001908080601f01602080910402602001604051908101604052809392919081815260200183838082843782019150505050505091905050611c58565b6040518080602001806020018573ffffffffffffffffffffffffffffffffffffffff1673ffffffffffffffffffffffffffffffffffffffff168152602001848152602001838103835287818151815260200191508051906020019080838360005b838110156107d25780820151818401526020810190506107b7565b50505050905090810190601f1680156107ff5780820380516001836020036101000a031916815260200191505b50838103825286818151815260200191508051906020019080838360005b8381101561083857808201518184015260208101905061081d565b50505050905090810190601f1680156108655780820380516001836020036101000a031916815260200191505b50965050505050505060405180910390f35b341561088257600080fd5b6108d2600480803590602001908201803590602001908080601f01602080910402602001604051908101604052809392919081815260200183838082843782019150505050505091905050611ea7565b604051808215151515815260200191505060405180910390f35b34156108f757600080fd5b6109a9600480803590602001908201803590602001908080601f0160208091040260200160405190810160405280939291908181526020018383808284378201915050505050509190803590602001908201803590602001908080601f0160208091040260200160405190810160405280939291908181526020018383808284378201915050505050509190803573ffffffffffffffffffffffffffffffffffffffff16906020019091905050611f09565b6040518082815260200191505060405180910390f35b34156109ca57600080fd5b6109d2612009565b6040518082815260200191505060405180910390f35b34156109f357600080fd5b610a43600480803590602001908201803590602001908080601f01602080910402602001604051908101604052809392919081815260200183838082843782019150505050505091905050612015565b604051808060200180602001806020018573ffffffffffffffffffffffffffffffffffffffff1673ffffffffffffffffffffffffffffffffffffffff168152602001848103845288818151815260200191508051906020019080838360005b83811015610abd578082015181840152602081019050610aa2565b50505050905090810190601f168015610aea5780820380516001836020036101000a031916815260200191505b50848103835287818151815260200191508051906020019080838360005b83811015610b23578082015181840152602081019050610b08565b50505050905090810190601f168015610b505780820380516001836020036101000a031916815260200191505b50848103825286818151815260200191508051906020019080838360005b83811015610b89578082015181840152602081019050610b6e565b50505050905090810190601f168015610bb65780820380516001836020036101000a031916815260200191505b5097505050505050505060405180910390f35b3415610bd457600080fd5b610ced600480803590602001908201803590602001908080601f0160208091040260200160405190810160405280939291908181526020018383808284378201915050505050509190803590602001908201803590602001908080601f0160208091040260200160405190810160405280939291908181526020018383808284378201915050505050509190803590602001908201803590602001908080601f0160208091040260200160405190810160405280939291908181526020018383808284378201915050505050509190803590602001908201803590602001908080601f01602080910402602001604051908101604052809392919081815260200183838082843782019150505050505091905050612306565b6040518082815260200191505060405180910390f35b3415610d0e57600080fd5b610da1600480803590602001908201803590602001908080601f0160208091040260200160405190810160405280939291908181526020018383808284378201915050505050509190803590602001908201803590602001908080601f01602080910402602001604051908101604052809392919081815260200183838082843782019150505050505091905050612566565b005b3415610dae57600080fd5b610ec7600480803590602001908201803590602001908080601f0160208091040260200160405190810160405280939291908181526020018383808284378201915050505050509190803590602001908201803590602001908080601f0160208091040260200160405190810160405280939291908181526020018383808284378201915050505050509190803590602001908201803590602001908080601f0160208091040260200160405190810160405280939291908181526020018383808284378201915050505050509190803590602001908201803590602001908080601f016020809104026020016040519081016040528093929190818152602001838380828437820191505050505050919050506125ed565b005b3415610ed457600080fd5b610f67600480803590602001908201803590602001908080601f0160208091040260200160405190810160405280939291908181526020018383808284378201915050505050509190803590602001908201803590602001908080601f016020809104026020016040519081016040528093929190818152602001838380828437820191505050505050919050506126ac565b604051808215151515815260200191505060405180910390f35b3415610f8c57600080fd5b610f94612740565b6040518082815260200191505060405180910390f35b3415610fb557600080fd5b611048600480803590602001908201803590602001908080601f0160208091040260200160405190810160405280939291908181526020018383808284378201915050505050509190803590602001908201803590602001908080601f0160208091040260200160405190810160405280939291908181526020018383808284378201915050505050509190505061274d565b604051808215151515815260200191505060405180910390f35b6000600280549050905090565b600080600090505b600280549050811015611142576110ad60028281548110151561109657fe5b9060005260206000209060020201600001846127e1565b80156110ea5750600015156002828154811015156110c757fe5b906000526020600020906002020160010160149054906101000a900460ff161515145b15611137576002818154811015156110fe57fe5b906000526020600020906002020160010160009054906101000a900473ffffffffffffffffffffffffffffffffffffffff169150611143565b806001019050611077565b5b50919050565b61115161296a565b61115961296a565b60008060008090505b6000805490508110156113d5578573ffffffffffffffffffffffffffffffffffffffff1660008281548110151561119557fe5b906000526020600020906004020160020160009054906101000a900473ffffffffffffffffffffffffffffffffffffffff1673ffffffffffffffffffffffffffffffffffffffff1614156113ca576000818154811015156111f257fe5b906000526020600020906004020160000160008281548110151561121257fe5b906000526020600020906004020160010160008381548110151561123257fe5b906000526020600020906004020160020160009054906101000a900473ffffffffffffffffffffffffffffffffffffffff1660008481548110151561127357fe5b906000526020600020906004020160030154838054600181600116156101000203166002900480601f01602080910402602001604051908101604052809291908181526020018280546001816001161561010002031660029004801561131a5780601f106112ef5761010080835404028352916020019161131a565b820191906000526020600020905b8154815290600101906020018083116112fd57829003601f168201915b50505050509350828054600181600116156101000203166002900480601f0160208091040260200160405190810160405280929190818152602001828054600181600116156101000203166002900480156113b65780601f1061138b576101008083540402835291602001916113b6565b820191906000526020600020905b81548152906001019060200180831161139957829003601f168201915b5050505050925094509450945094506113d6565b806001019050611162565b5b509193509193565b600080600091505b60028054905082101561161d5761141c60028381548110151561140557fe5b9060005260206000209060020201600001866127e1565b801561149357508373ffffffffffffffffffffffffffffffffffffffff1660028381548110151561144957fe5b906000526020600020906002020160010160009054906101000a900473ffffffffffffffffffffffffffffffffffffffff1673ffffffffffffffffffffffffffffffffffffffff16145b156116125782156114dc5760016002838154811015156114af57fe5b906000526020600020906002020160010160146101000a81548160ff02191690831515021790555061160d565b8190505b60028080549050038110156115f65760026001830181548110151561150157fe5b906000526020600020906002020160028381548110151561151e57fe5b90600052602060002090600202016000820181600001908054600181600116156101000203166002900461155392919061297e565b506001820160009054906101000a900473ffffffffffffffffffffffffffffffffffffffff168160010160006101000a81548173ffffffffffffffffffffffffffffffffffffffff021916908373ffffffffffffffffffffffffffffffffffffffff1602179055506001820160149054906101000a900460ff168160010160146101000a81548160ff0219169083151502179055509050508060010190506114e0565b600280548091906001900361160b9190612a05565b505b61161e565b8160010191506113e6565b5b5050505050565b600080600090505b6000805490508110156116f35761166360008281548110151561164c57fe5b9060005260206000209060040201600001856127e1565b80156116da57508273ffffffffffffffffffffffffffffffffffffffff1660008281548110151561169057fe5b906000526020600020906004020160020160009054906101000a900473ffffffffffffffffffffffffffffffffffffffff1673ffffffffffffffffffffffffffffffffffffffff16145b156116e857600191506116f8565b80600101905061162d565b600091505b5092915050565b600080600090505b6000805490508110156117875761173d60008281548110151561172657fe5b9060005260206000209060040201600001856127e1565b801561176e575061176d60008281548110151561175657fe5b9060005260206000209060040201600101846127e1565b5b1561177c576001915061178c565b806001019050611707565b600091505b5092915050565b60008090505b60028054905081101561185b576117cf6002828154811015156117b857fe5b9060005260206000209060020201600001846127e1565b801561184657508173ffffffffffffffffffffffffffffffffffffffff166002828154811015156117fc57fe5b906000526020600020906002020160010160009054906101000a900473ffffffffffffffffffffffffffffffffffffffff1673ffffffffffffffffffffffffffffffffffffffff16145b1561185057611941565b806001019050611799565b6002805480600101828161186f9190612a37565b916000526020600020906002020160006060604051908101604052808781526020018673ffffffffffffffffffffffffffffffffffffffff16815260200160001515815250909190915060008201518160000190805190602001906118d5929190612a69565b5060208201518160010160006101000a81548173ffffffffffffffffffffffffffffffffffffffff021916908373ffffffffffffffffffffffffffffffffffffffff16021790555060408201518160010160146101000a81548160ff0219169083151502179055505050505b505050565b600080600091505b600180549050821015611b415761198460018381548110151561196d57fe5b9060005260206000209060050201600101856127e1565b80156119b557506119b460018381548110151561199d57fe5b9060005260206000209060050201600301846127e1565b5b15611b36576001820190505b600180549050811015611b1f576001828154811015156119dd57fe5b906000526020600020906005020160018084038154811015156119fc57fe5b906000526020600020906005020160008201816000019080546001816001161561010002031660029004611a3192919061297e565b5060018201816001019080546001816001161561010002031660029004611a5992919061297e565b5060028201816002019080546001816001161561010002031660029004611a8192919061297e565b5060038201816003019080546001816001161561010002031660029004611aa992919061297e565b506004820160009054906101000a900473ffffffffffffffffffffffffffffffffffffffff168160040160006101000a81548173ffffffffffffffffffffffffffffffffffffffff021916908373ffffffffffffffffffffffffffffffffffffffff1602179055509050508060010190506119c1565b6001805480919060019003611b349190612ae9565b505b81600101915061194e565b5050505050565b600080600090505b600280549050811015611c4c57611b86600282815481101515611b6f57fe5b9060005260206000209060020201600001856127e1565b8015611bfd57508273ffffffffffffffffffffffffffffffffffffffff16600282815481101515611bb357fe5b906000526020600020906002020160010160009054906101000a900473ffffffffffffffffffffffffffffffffffffffff1673ffffffffffffffffffffffffffffffffffffffff16145b8015611c335750600281815481101515611c1357fe5b906000526020600020906002020160010160149054906101000a900460ff165b15611c415760019150611c51565b806001019050611b50565b600091505b5092915050565b611c6061296a565b611c6861296a565b60008060008090505b600080549050811015611e9e57611ca7600082815481101515611c9057fe5b9060005260206000209060040201600001876127e1565b15611e9357600081815481101515611cbb57fe5b9060005260206000209060040201600001600082815481101515611cdb57fe5b9060005260206000209060040201600101600083815481101515611cfb57fe5b906000526020600020906004020160020160009054906101000a900473ffffffffffffffffffffffffffffffffffffffff16600084815481101515611d3c57fe5b906000526020600020906004020160030154838054600181600116156101000203166002900480601f016020809104026020016040519081016040528092919081815260200182805460018160011615610100020316600290048015611de35780601f10611db857610100808354040283529160200191611de3565b820191906000526020600020905b815481529060010190602001808311611dc657829003601f168201915b50505050509350828054600181600116156101000203166002900480601f016020809104026020016040519081016040528092919081815260200182805460018160011615610100020316600290048015611e7f5780601f10611e5457610100808354040283529160200191611e7f565b820191906000526020600020905b815481529060010190602001808311611e6257829003601f168201915b505050505092509450945094509450611e9f565b806001019050611c71565b5b509193509193565b600080600090505b600180549050811015611efe57611ee5600182815481101515611ece57fe5b9060005260206000209060050201600101846127e1565b15611ef35760019150611f03565b806001019050611eaf565b600091505b50919050565b6000808054806001018281611f1e9190612b1b565b916000526020600020906004020160006080604051908101604052808881526020018781526020018673ffffffffffffffffffffffffffffffffffffffff168152602001600081525090919091506000820151816000019080519060200190611f88929190612a69565b506020820151816001019080519060200190611fa5929190612a69565b5060408201518160020160006101000a81548173ffffffffffffffffffffffffffffffffffffffff021916908373ffffffffffffffffffffffffffffffffffffffff1602179055506060820151816003015550505060008054905090509392505050565b60008080549050905090565b61201d61296a565b61202561296a565b61202d61296a565b600080600090505b6001805490508110156122fd5761206b60018281548110151561205457fe5b9060005260206000209060050201600101876127e1565b156122f25760018181548110151561207f57fe5b906000526020600020906005020160010160018281548110151561209f57fe5b90600052602060002090600502016002016001838154811015156120bf57fe5b90600052602060002090600502016003016001848154811015156120df57fe5b906000526020600020906005020160040160009054906101000a900473ffffffffffffffffffffffffffffffffffffffff16838054600181600116156101000203166002900480601f0160208091040260200160405190810160405280929190818152602001828054600181600116156101000203166002900480156121a65780601f1061217b576101008083540402835291602001916121a6565b820191906000526020600020905b81548152906001019060200180831161218957829003601f168201915b50505050509350828054600181600116156101000203166002900480601f0160208091040260200160405190810160405280929190818152602001828054600181600116156101000203166002900480156122425780601f1061221757610100808354040283529160200191612242565b820191906000526020600020905b81548152906001019060200180831161222557829003601f168201915b50505050509250818054600181600116156101000203166002900480601f0160208091040260200160405190810160405280929190818152602001828054600181600116156101000203166002900480156122de5780601f106122b3576101008083540402835291602001916122de565b820191906000526020600020905b8154815290600101906020018083116122c157829003601f168201915b5050505050915094509450945094506122fe565b806001019050612035565b5b509193509193565b6000806001805480600101828161231d9190612b4d565b9160005260206000209060050201600060a060405190810160405280602060405190810160405280600081525081526020018981526020018881526020018781526020013373ffffffffffffffffffffffffffffffffffffffff168152509091909150600082015181600001908051906020019061239c929190612a69565b5060208201518160010190805190602001906123b9929190612a69565b5060408201518160020190805190602001906123d6929190612a69565b5060608201518160030190805190602001906123f3929190612a69565b5060808201518160040160006101000a81548173ffffffffffffffffffffffffffffffffffffffff021916908373ffffffffffffffffffffffffffffffffffffffff160217905550505050600090505b6000805490508110156125585761247960008281548110151561246257fe5b9060005260206000209060040201600001876127e1565b80156124f057503373ffffffffffffffffffffffffffffffffffffffff166000828154811015156124a657fe5b906000526020600020906004020160020160009054906101000a900473ffffffffffffffffffffffffffffffffffffffff1673ffffffffffffffffffffffffffffffffffffffff16145b1561254d5760008181548110151561250457fe5b90600052602060002090600402016003016000815480929190600101919050555060008181548110151561253457fe5b906000526020600020906004020160030154915061255d565b806001019050612443565b600091505b50949350505050565b60008090505b6001805490508110156125e8576125a260018281548110151561258b57fe5b9060005260206000209060050201600101846127e1565b156125dd57816001828154811015156125b757fe5b906000526020600020906005020160000190805190602001906125db929190612b7f565b505b80600101905061256c565b505050565b60008090505b6001805490508110156126a45761262960018281548110151561261257fe5b9060005260206000209060050201600101856127e1565b801561265a575061265960018281548110151561264257fe5b9060005260206000209060050201600301836127e1565b5b15612699578260018281548110151561266f57fe5b90600052602060002090600502016002019080519060200190612693929190612b7f565b506126a5565b8060010190506125f3565b5b5050505050565b600080600090505b600180549050811015612734576126ea6001828154811015156126d357fe5b9060005260206000209060050201600101856127e1565b801561271b575061271a60018281548110151561270357fe5b9060005260206000209060050201600301846127e1565b5b156127295760019150612739565b8060010190506126b4565b600091505b5092915050565b6000600180549050905090565b600080600090505b6001805490508110156127d55761278b60018281548110151561277457fe5b9060005260206000209060050201600101856127e1565b80156127bc57506127bb6001828154811015156127a457fe5b9060005260206000209060050201600001846127e1565b5b156127ca57600191506127da565b806001019050612755565b600091505b5092915050565b6000806127ec612bff565b600085925084915081518380546001816001161561010002031660029004905014151561281c5760009350612961565b600090505b8280546001816001161561010002031660029004905081101561295c57818181518110151561284c57fe5b9060200101517f010000000000000000000000000000000000000000000000000000000000000090047f0100000000000000000000000000000000000000000000000000000000000000027effffffffffffffffffffffffffffffffffffffffffffffffffffffffffffff1916838281546001816001161561010002031660029004811015156128d857fe5b8154600116156128f75790600052602060002090602091828204019190065b9054901a7f0100000000000000000000000000000000000000000000000000000000000000027effffffffffffffffffffffffffffffffffffffffffffffffffffffffffffff191614151561294f5760009350612961565b8080600101915050612821565b600193505b50505092915050565b602060405190810160405280600081525090565b828054600181600116156101000203166002900490600052602060002090601f016020900481019282601f106129b757805485556129f4565b828001600101855582156129f457600052602060002091601f016020900482015b828111156129f35782548255916001019190600101906129d8565b5b509050612a019190612c13565b5090565b815481835581811511612a3257600202816002028360005260206000209182019101612a319190612c38565b5b505050565b815481835581811511612a6457600202816002028360005260206000209182019101612a639190612c38565b5b505050565b828054600181600116156101000203166002900490600052602060002090601f016020900481019282601f10612aaa57805160ff1916838001178555612ad8565b82800160010185558215612ad8579182015b82811115612ad7578251825591602001919060010190612abc565b5b509050612ae59190612c13565b5090565b815481835581811511612b1657600502816005028360005260206000209182019101612b159190612ca2565b5b505050565b815481835581811511612b4857600402816004028360005260206000209182019101612b479190612d28565b5b505050565b815481835581811511612b7a57600502816005028360005260206000209182019101612b799190612ca2565b5b505050565b828054600181600116156101000203166002900490600052602060002090601f016020900481019282601f10612bc057805160ff1916838001178555612bee565b82800160010185558215612bee579182015b82811115612bed578251825591602001919060010190612bd2565b5b509050612bfb9190612c13565b5090565b602060405190810160405280600081525090565b612c3591905b80821115612c31576000816000905550600101612c19565b5090565b90565b612c9f91905b80821115612c9b5760008082016000612c579190612d96565b6001820160006101000a81549073ffffffffffffffffffffffffffffffffffffffff02191690556001820160146101000a81549060ff021916905550600201612c3e565b5090565b90565b612d2591905b80821115612d215760008082016000612cc19190612d96565b600182016000612cd19190612d96565b600282016000612ce19190612d96565b600382016000612cf19190612d96565b6004820160006101000a81549073ffffffffffffffffffffffffffffffffffffffff021916905550600501612ca8565b5090565b90565b612d9391905b80821115612d8f5760008082016000612d479190612d96565b600182016000612d579190612d96565b6002820160006101000a81549073ffffffffffffffffffffffffffffffffffffffff0219169055600382016000905550600401612d2e565b5090565b90565b50805460018160011615610100020316600290046000825580601f10612dbc5750612ddb565b601f016020900490600052602060002090810190612dda9190612c13565b5b505600a165627a7a723058208e144e6efd7d560eeb01d834cc469822026c74a98190eb686f827e51cc6978210029",
  "source": "pragma solidity ^0.4.18;\r\n\r\nimport \"./StringUtils.sol\";\r\n\r\ncontract BGC {\r\n\r\n  struct Organization {\r\n    string name;\r\n    string regNumber;\r\n    address password;\r\n    uint256 empCount;\r\n  }\r\n\r\n  struct Employee {\r\n        string password;\r\n        string username;\r\n        string data;\r\n        string email;\r\n        address currentOrgAddr;\r\n    }\r\n\r\n  struct Request {\r\n       string uname;\r\n       address orgAddress;\r\n       bool isAllowed;\r\n   }\r\n\r\n  Organization[] orgs;\r\n  Employee[] emps;\r\n  Request[] bgcRequests;\r\n\r\n  function BGC() public {\r\n  }\r\n\r\n  function isOrgExist(string _name,string _regNumber) public view returns (bool) {\r\n    for (uint256 i = 0; i < orgs.length; ++i) {\r\n         if(StringUtils.equal(orgs[i].name, _name) && StringUtils.equal(orgs[i].regNumber, _regNumber))\r\n          return true;\r\n    }\r\n    return false;\r\n  }\r\n\r\n  function addOrg(string _name,string _regNumber,address _password) public returns(uint256) {\r\n     orgs.push(Organization(_name,_regNumber,_password,0));\r\n     return orgs.length;\r\n  }\r\n\r\n  function getOrg(string _name) public view returns (string,string,address,uint256) {\r\n    for(uint256 i=0; i < orgs.length; ++i) {\r\n         if(StringUtils.equal(orgs[i].name, _name))\r\n            return (orgs[i].name,orgs[i].regNumber,orgs[i].password,orgs[i].empCount);\r\n    }\r\n  }\r\n\r\n  function getOrgSize() public view returns (uint) {\r\n    return orgs.length;\r\n  }\r\n\r\n  function authenticateOrg(string org_name, address _password) public view returns (bool) {\r\n    for (uint256 i = 0; i < orgs.length; ++i) {\r\n         if(StringUtils.equal(orgs[i].name, org_name) && orgs[i].password == _password)\r\n          return true;\r\n    }\r\n    return false;\r\n  }\r\n\r\n  ///////////////////////Employee ////////////////\r\n   function addEmployee(string _org,string _username,string _data,string _email) public returns (uint256) {\r\n      emps.push(Employee( \"\", _username, _data, _email,msg.sender));\r\n      for(uint256 i=0; i < orgs.length; ++i) {\r\n           if(StringUtils.equal(orgs[i].name, _org) && orgs[i].password == msg.sender){\r\n               orgs[i].empCount++;\r\n              return orgs[i].empCount;\r\n           }\r\n      }\r\n      return 0;\r\n    }\r\n\r\n    function isEmployeeExist(string _username,string _email) public view returns (bool) {\r\n      for (uint256 i = 0; i < emps.length; ++i) {\r\n           if(StringUtils.equal(emps[i].username, _username) && StringUtils.equal(emps[i].email, _email))\r\n            return true;\r\n      }\r\n      return false;\r\n    }\r\n\r\n    function getEmployeeSize() public view returns (uint) {\r\n      return emps.length;\r\n    }\r\n\r\n    function isUserExist(string _username) public view returns (bool) {\r\n       for (uint256 i = 0; i < emps.length; ++i) {\r\n            if(StringUtils.equal(emps[i].username, _username))\r\n              return true;\r\n       }\r\n       return false;\r\n     }\r\n\r\n     function setPassword(string _username,string _password) public {\r\n           for (uint256 i = 0; i < emps.length; ++i) {\r\n                if(StringUtils.equal(emps[i].username, _username))\r\n                 emps[i].password=_password;\r\n           }\r\n     }\r\n\r\n    function authenticateEmployee(string _username, string _password) public view returns (bool) {\r\n           for (uint256 i = 0; i < emps.length; ++i) {\r\n                if (StringUtils.equal(emps[i].username, _username) && StringUtils.equal(emps[i].password, _password))\r\n                  return true;\r\n           }\r\n           return false;\r\n    }\r\n\r\n    function viewEmployeeDetails(string _name) public view returns (string,string,string,address) {\r\n      for(uint256 i=0; i < emps.length; ++i) {\r\n           if(StringUtils.equal(emps[i].username, _name))\r\n              return (emps[i].username, emps[i].data, emps[i].email, emps[i].currentOrgAddr);\r\n      }\r\n    }\r\n\r\n///////////////////////////////BGC//////////////////////////\r\n    function addBGCRequest(string _uname, address _orgAddress) public {\r\n             for(uint256 i = 0; i < bgcRequests.length; ++ i) {\r\n                 if(StringUtils.equal(bgcRequests[i].uname, _uname) && bgcRequests[i].orgAddress == _orgAddress) {\r\n                     return;\r\n                 }\r\n             }\r\n             bgcRequests.push(Request(_uname, _orgAddress, false));\r\n    }\r\n\r\n    function isBGCAllowed(string _uname, address _orgAddress) public view returns(bool) {\r\n       for(uint256 i = 0; i < bgcRequests.length; ++i) {\r\n           if(StringUtils.equal(bgcRequests[i].uname, _uname)\r\n              && bgcRequests[i].orgAddress == _orgAddress\r\n              && bgcRequests[i].isAllowed) {\r\n               return true;\r\n           }\r\n       }\r\n       return false;\r\n   }\r\n\r\n   function getEmployeeBGCSize() public view returns (uint) {\r\n     return bgcRequests.length;\r\n   }\r\n\r\n\r\n   function pendingBGCRequests(string uname) public view returns(address)  {\r\n      for(uint256 i=0; i < bgcRequests.length; ++i) {\r\n          if(StringUtils.equal(bgcRequests[i].uname, uname)\r\n              && bgcRequests[i].isAllowed == false)\r\n                return bgcRequests[i].orgAddress;\r\n      }\r\n   }\r\n\r\n   function getOrgByAddress(address _address) public view returns (string,string,address,uint256) {\r\n     for(uint256 i=0; i < orgs.length; ++i) {\r\n          if(orgs[i].password == _address)\r\n             return (orgs[i].name,orgs[i].regNumber,orgs[i].password,orgs[i].empCount);\r\n     }\r\n   }\r\n\r\n   function setBGCRequestAllow(string _uname, address _orgAddress, bool isAllowed) public {\r\n       for(uint i = 0; i < bgcRequests.length; ++ i) {\r\n           if(StringUtils.equal(bgcRequests[i].uname, _uname) && bgcRequests[i].orgAddress == _orgAddress) {\r\n               if(isAllowed) {\r\n                   bgcRequests[i].isAllowed = true;\r\n               } else {\r\n                   for(uint j=i; j < bgcRequests.length-2; ++j) {\r\n                       bgcRequests[i] = bgcRequests[i+1];\r\n                   }\r\n                   bgcRequests.length --;\r\n               }\r\n               return;\r\n           }\r\n       }\r\n   }\r\n\r\n\r\n   function editEmployee(string _org,string _username,string _data,string _email) public {\r\n       for(uint i = 0; i < emps.length; ++ i) {\r\n         if(StringUtils.equal(emps[i].username, _username) && StringUtils.equal(emps[i].email, _email)){\r\n               emps[i].data = _data;\r\n               return;\r\n           }\r\n       }\r\n   }\r\n\r\n\r\n   function deleteEmployee(string _org,string _username,string _email) public {\r\n          for(uint i = 0; i < emps.length; ++ i) {\r\n            if(StringUtils.equal(emps[i].username, _username) && StringUtils.equal(emps[i].email, _email)){\r\n                  for(uint j = i+1;j < emps.length; ++ j) {\r\n                      emps[i-1] = emps[i];\r\n                  }\r\n                  emps.length --;\r\n              }\r\n          }\r\n      }\r\n\r\n\r\n\r\n\r\n\r\n}\r\n",
  "sourcePath": "G:\\bgc-app\\contracts\\BGC.sol",
  "compiler": {
    "name": "solc",
    "version": "0.4.18+commit.9cf6e910.Emscripten.clang"
  },
  "schemaVersion": "1.0.1",
  "updatedAt": "2018-04-28T14:37:05.256Z"
}