{
  "contractName": "Addresses",
  "abi": [
    {
      "constant": false,
      "inputs": [
        {
          "name": "_base",
          "type": "address"
        }
      ],
      "name": "isContract",
      "outputs": [
        {
          "name": "_r",
          "type": "bool"
        }
      ],
      "payable": false,
      "stateMutability": "nonpayable",
      "type": "function"
    }
  ],
  "bytecode": "0x6060604052341561000f57600080fd5b60c18061001d6000396000f300606060405260043610603f576000357c0100000000000000000000000000000000000000000000000000000000900463ffffffff16806316279055146044575b600080fd5b606e600480803573ffffffffffffffffffffffffffffffffffffffff169060200190919050506088565b604051808215151515815260200191505060405180910390f35b600080823b1190509190505600a165627a7a72305820d50fc12ab1f3c76ecfbade91b0bb789bd4ee83afa44ede51334a80bb32f5ed530029",
  "source": "pragma solidity ^0.4.0;\r\n\r\n/**\r\n * Addresses Library\r\n * \r\n * In summary this is a simple library of address functions which extends the\r\n * pre-existing functionality\r\n * \r\n * @author James Lockhart <james@n3tw0rk.co.uk>\r\n */\r\nlibrary Addresses {\r\n    /**\r\n     * Is Contract\r\n     * \r\n     * Check to see if the subject address is a contract on the Ethereum network\r\n     * \r\n     * @param _base The address on the network to check if it is a contract\r\n     * @return bool Returns true if it is a valid contract\r\n     */\r\n    function isContract(address _base) returns (bool _r) {\r\n        assembly {\r\n            _r := gt(extcodesize(_base), 0)\r\n        }\r\n    }\r\n}",
  "sourcePath": "G:\\bgc-app\\contracts\\Addresses.sol",
  "compiler": {
    "name": "solc",
    "version": "0.4.18+commit.9cf6e910.Emscripten.clang"
  },
  "schemaVersion": "1.0.1",
  "updatedAt": "2018-04-25T15:41:35.187Z"
}