{
  "contractName": "BGC",
  "abi": [
    {
      "constant": true,
      "inputs": [
        {
          "name": "ins",
          "type": "address"
        }
      ],
      "name": "getOrg",
      "outputs": [
        {
          "name": "",
          "type": "string"
        },
        {
          "name": "",
          "type": "string"
        },
        {
          "name": "",
          "type": "address"
        },
        {
          "name": "",
          "type": "uint256"
        }
      ],
      "payable": false,
      "stateMutability": "view",
      "type": "function"
    },
    {
      "constant": true,
      "inputs": [
        {
          "name": "org",
          "type": "string"
        },
        {
          "name": "_password",
          "type": "address"
        }
      ],
      "name": "authenticateOrg",
      "outputs": [
        {
          "name": "",
          "type": "bool"
        }
      ],
      "payable": false,
      "stateMutability": "view",
      "type": "function"
    },
    {
      "constant": true,
      "inputs": [
        {
          "name": "ins",
          "type": "address"
        }
      ],
      "name": "getEmployee",
      "outputs": [
        {
          "name": "",
          "type": "string"
        },
        {
          "name": "",
          "type": "string"
        },
        {
          "name": "",
          "type": "string"
        },
        {
          "name": "",
          "type": "uint256"
        },
        {
          "name": "",
          "type": "address"
        },
        {
          "name": "",
          "type": "uint256"
        }
      ],
      "payable": false,
      "stateMutability": "view",
      "type": "function"
    },
    {
      "constant": false,
      "inputs": [
        {
          "name": "_password",
          "type": "string"
        },
        {
          "name": "_fName",
          "type": "string"
        },
        {
          "name": "_lName",
          "type": "string"
        },
        {
          "name": "_cAddress",
          "type": "string"
        },
        {
          "name": "_mob",
          "type": "uint256"
        },
        {
          "name": "_org",
          "type": "address"
        },
        {
          "name": "_exp",
          "type": "uint256"
        }
      ],
      "name": "addEmployee",
      "outputs": [],
      "payable": false,
      "stateMutability": "nonpayable",
      "type": "function"
    },
    {
      "constant": true,
      "inputs": [
        {
          "name": "_name",
          "type": "string"
        },
        {
          "name": "_regNumber",
          "type": "string"
        }
      ],
      "name": "isOrgExist",
      "outputs": [
        {
          "name": "",
          "type": "bool"
        }
      ],
      "payable": false,
      "stateMutability": "view",
      "type": "function"
    },
    {
      "constant": true,
      "inputs": [
        {
          "name": "",
          "type": "uint256"
        }
      ],
      "name": "orgsAddr",
      "outputs": [
        {
          "name": "",
          "type": "address"
        }
      ],
      "payable": false,
      "stateMutability": "view",
      "type": "function"
    },
    {
      "constant": true,
      "inputs": [
        {
          "name": "empAddr",
          "type": "address"
        },
        {
          "name": "_password",
          "type": "string"
        }
      ],
      "name": "authenticateEmployee",
      "outputs": [
        {
          "name": "",
          "type": "bool"
        }
      ],
      "payable": false,
      "stateMutability": "view",
      "type": "function"
    },
    {
      "constant": false,
      "inputs": [
        {
          "name": "_name",
          "type": "string"
        },
        {
          "name": "_regNumber",
          "type": "string"
        },
        {
          "name": "_password",
          "type": "address"
        }
      ],
      "name": "addOrg",
      "outputs": [],
      "payable": false,
      "stateMutability": "nonpayable",
      "type": "function"
    },
    {
      "constant": true,
      "inputs": [],
      "name": "getOrgSize",
      "outputs": [
        {
          "name": "",
          "type": "uint256"
        }
      ],
      "payable": false,
      "stateMutability": "view",
      "type": "function"
    },
    {
      "constant": true,
      "inputs": [
        {
          "name": "",
          "type": "uint256"
        }
      ],
      "name": "empsAddr",
      "outputs": [
        {
          "name": "",
          "type": "address"
        }
      ],
      "payable": false,
      "stateMutability": "view",
      "type": "function"
    },
    {
      "constant": true,
      "inputs": [],
      "name": "getEmployeeSize",
      "outputs": [
        {
          "name": "",
          "type": "uint256"
        }
      ],
      "payable": false,
      "stateMutability": "view",
      "type": "function"
    },
    {
      "inputs": [],
      "payable": false,
      "stateMutability": "nonpayable",
      "type": "constructor"
    }
  ],
  "bytecode": "0x6060604052341561000f57600080fd5b6117eb8061001e6000396000f3006060604052600436106100af576000357c0100000000000000000000000000000000000000000000000000000000900463ffffffff1680631f1f8652146100b45780632896c88c1461020c57806332648e09146102a057806334d9c3301461046b57806340f839b8146105c2578063643c43a71461067a5780638890ccfb146106dd5780638f362a3e146107715780639158498f14610830578063d434501414610859578063ecadd810146108bc575b600080fd5b34156100bf57600080fd5b6100eb600480803573ffffffffffffffffffffffffffffffffffffffff169060200190919050506108e5565b6040518080602001806020018573ffffffffffffffffffffffffffffffffffffffff1673ffffffffffffffffffffffffffffffffffffffff168152602001848152602001838103835287818151815260200191508051906020019080838360005b8381101561016757808201518184015260208101905061014c565b50505050905090810190601f1680156101945780820380516001836020036101000a031916815260200191505b50838103825286818151815260200191508051906020019080838360005b838110156101cd5780820151818401526020810190506101b2565b50505050905090810190601f1680156101fa5780820380516001836020036101000a031916815260200191505b50965050505050505060405180910390f35b341561021757600080fd5b610286600480803590602001908201803590602001908080601f0160208091040260200160405190810160405280939291908181526020018383808284378201915050505050509190803573ffffffffffffffffffffffffffffffffffffffff16906020019091905050610b65565b604051808215151515815260200191505060405180910390f35b34156102ab57600080fd5b6102d7600480803573ffffffffffffffffffffffffffffffffffffffff16906020019091905050610bb9565b604051808060200180602001806020018781526020018673ffffffffffffffffffffffffffffffffffffffff1673ffffffffffffffffffffffffffffffffffffffff16815260200185815260200184810384528a818151815260200191508051906020019080838360005b8381101561035d578082015181840152602081019050610342565b50505050905090810190601f16801561038a5780820380516001836020036101000a031916815260200191505b50848103835289818151815260200191508051906020019080838360005b838110156103c35780820151818401526020810190506103a8565b50505050905090810190601f1680156103f05780820380516001836020036101000a031916815260200191505b50848103825288818151815260200191508051906020019080838360005b8381101561042957808201518184015260208101905061040e565b50505050905090810190601f1680156104565780820380516001836020036101000a031916815260200191505b50995050505050505050505060405180910390f35b341561047657600080fd5b6105c0600480803590602001908201803590602001908080601f0160208091040260200160405190810160405280939291908181526020018383808284378201915050505050509190803590602001908201803590602001908080601f0160208091040260200160405190810160405280939291908181526020018383808284378201915050505050509190803590602001908201803590602001908080601f0160208091040260200160405190810160405280939291908181526020018383808284378201915050505050509190803590602001908201803590602001908080601f0160208091040260200160405190810160405280939291908181526020018383808284378201915050505050509190803590602001909190803573ffffffffffffffffffffffffffffffffffffffff16906020019091908035906020019091905050610f6e565b005b34156105cd57600080fd5b610660600480803590602001908201803590602001908080601f0160208091040260200160405190810160405280939291908181526020018383808284378201915050505050509190803590602001908201803590602001908080601f01602080910402602001604051908101604052809392919081815260200183838082843782019150505050505091905050611199565b604051808215151515815260200191505060405180910390f35b341561068557600080fd5b61069b60048080359060200190919050506112e3565b604051808273ffffffffffffffffffffffffffffffffffffffff1673ffffffffffffffffffffffffffffffffffffffff16815260200191505060405180910390f35b34156106e857600080fd5b610757600480803573ffffffffffffffffffffffffffffffffffffffff1690602001909190803590602001908201803590602001908080601f01602080910402602001604051908101604052809392919081815260200183838082843782019150505050505091905050611322565b604051808215151515815260200191505060405180910390f35b341561077c57600080fd5b61082e600480803590602001908201803590602001908080601f0160208091040260200160405190810160405280939291908181526020018383808284378201915050505050509190803590602001908201803590602001908080601f0160208091040260200160405190810160405280939291908181526020018383808284378201915050505050509190803573ffffffffffffffffffffffffffffffffffffffff16906020019091905050611377565b005b341561083b57600080fd5b6108436114e4565b6040518082815260200191505060405180910390f35b341561086457600080fd5b61087a60048080359060200190919050506114f1565b604051808273ffffffffffffffffffffffffffffffffffffffff1673ffffffffffffffffffffffffffffffffffffffff16815260200191505060405180910390f35b34156108c757600080fd5b6108cf611530565b6040518082815260200191505060405180910390f35b6108ed6116c6565b6108f56116c6565b6000806000808673ffffffffffffffffffffffffffffffffffffffff1673ffffffffffffffffffffffffffffffffffffffff1681526020019081526020016000206000016000808773ffffffffffffffffffffffffffffffffffffffff1673ffffffffffffffffffffffffffffffffffffffff1681526020019081526020016000206001016000808873ffffffffffffffffffffffffffffffffffffffff1673ffffffffffffffffffffffffffffffffffffffff16815260200190815260200160002060020160009054906101000a900473ffffffffffffffffffffffffffffffffffffffff166000808973ffffffffffffffffffffffffffffffffffffffff1673ffffffffffffffffffffffffffffffffffffffff16815260200190815260200160002060030154838054600181600116156101000203166002900480601f016020809104026020016040519081016040528092919081815260200182805460018160011615610100020316600290048015610ab35780601f10610a8857610100808354040283529160200191610ab3565b820191906000526020600020905b815481529060010190602001808311610a9657829003601f168201915b50505050509350828054600181600116156101000203166002900480601f016020809104026020016040519081016040528092919081815260200182805460018160011615610100020316600290048015610b4f5780601f10610b2457610100808354040283529160200191610b4f565b820191906000526020600020905b815481529060010190602001808311610b3257829003601f168201915b5050505050925093509350935093509193509193565b6000610bb16000808473ffffffffffffffffffffffffffffffffffffffff1673ffffffffffffffffffffffffffffffffffffffff1681526020019081526020016000206000018461153d565b905092915050565b610bc16116c6565b610bc96116c6565b610bd16116c6565b6000806000600260008873ffffffffffffffffffffffffffffffffffffffff1673ffffffffffffffffffffffffffffffffffffffff168152602001908152602001600020600201600260008973ffffffffffffffffffffffffffffffffffffffff1673ffffffffffffffffffffffffffffffffffffffff168152602001908152602001600020600301600260008a73ffffffffffffffffffffffffffffffffffffffff1673ffffffffffffffffffffffffffffffffffffffff168152602001908152602001600020600401600260008b73ffffffffffffffffffffffffffffffffffffffff1673ffffffffffffffffffffffffffffffffffffffff16815260200190815260200160002060050154600260008c73ffffffffffffffffffffffffffffffffffffffff1673ffffffffffffffffffffffffffffffffffffffff16815260200190815260200160002060060160009054906101000a900473ffffffffffffffffffffffffffffffffffffffff16600260008d73ffffffffffffffffffffffffffffffffffffffff1673ffffffffffffffffffffffffffffffffffffffff16815260200190815260200160002060070154858054600181600116156101000203166002900480601f016020809104026020016040519081016040528092919081815260200182805460018160011615610100020316600290048015610e1a5780601f10610def57610100808354040283529160200191610e1a565b820191906000526020600020905b815481529060010190602001808311610dfd57829003601f168201915b50505050509550848054600181600116156101000203166002900480601f016020809104026020016040519081016040528092919081815260200182805460018160011615610100020316600290048015610eb65780601f10610e8b57610100808354040283529160200191610eb6565b820191906000526020600020905b815481529060010190602001808311610e9957829003601f168201915b50505050509450838054600181600116156101000203166002900480601f016020809104026020016040519081016040528092919081815260200182805460018160011615610100020316600290048015610f525780601f10610f2757610100808354040283529160200191610f52565b820191906000526020600020905b815481529060010190602001808311610f3557829003601f168201915b5050505050935095509550955095509550955091939550919395565b610100604051908101604052803373ffffffffffffffffffffffffffffffffffffffff1681526020018881526020018781526020018681526020018581526020018481526020018373ffffffffffffffffffffffffffffffffffffffff16815260200182815250600260003373ffffffffffffffffffffffffffffffffffffffff1673ffffffffffffffffffffffffffffffffffffffff16815260200190815260200160002060008201518160000160006101000a81548173ffffffffffffffffffffffffffffffffffffffff021916908373ffffffffffffffffffffffffffffffffffffffff16021790555060208201518160010190805190602001906110779291906116da565b5060408201518160020190805190602001906110949291906116da565b5060608201518160030190805190602001906110b19291906116da565b5060808201518160040190805190602001906110ce9291906116da565b5060a0820151816005015560c08201518160060160006101000a81548173ffffffffffffffffffffffffffffffffffffffff021916908373ffffffffffffffffffffffffffffffffffffffff16021790555060e0820151816007015590505060038054806001018281611141919061175a565b9160005260206000209001600033909190916101000a81548173ffffffffffffffffffffffffffffffffffffffff021916908373ffffffffffffffffffffffffffffffffffffffff1602179055505050505050505050565b600080600090505b6001805490508110156112d7576112326000806001848154811015156111c357fe5b906000526020600020900160009054906101000a900473ffffffffffffffffffffffffffffffffffffffff1673ffffffffffffffffffffffffffffffffffffffff1673ffffffffffffffffffffffffffffffffffffffff1681526020019081526020016000206000018561153d565b80156112be57506112bd60008060018481548110151561124e57fe5b906000526020600020900160009054906101000a900473ffffffffffffffffffffffffffffffffffffffff1673ffffffffffffffffffffffffffffffffffffffff1673ffffffffffffffffffffffffffffffffffffffff1681526020019081526020016000206001018461153d565b5b156112cc57600191506112dc565b8060010190506111a1565b600091505b5092915050565b6001818154811015156112f257fe5b90600052602060002090016000915054906101000a900473ffffffffffffffffffffffffffffffffffffffff1681565b600061136f600260008573ffffffffffffffffffffffffffffffffffffffff1673ffffffffffffffffffffffffffffffffffffffff1681526020019081526020016000206001018361153d565b905092915050565b6080604051908101604052808481526020018381526020018273ffffffffffffffffffffffffffffffffffffffff16815260200160008152506000808373ffffffffffffffffffffffffffffffffffffffff1673ffffffffffffffffffffffffffffffffffffffff168152602001908152602001600020600082015181600001908051906020019061140a9291906116da565b5060208201518160010190805190602001906114279291906116da565b5060408201518160020160006101000a81548173ffffffffffffffffffffffffffffffffffffffff021916908373ffffffffffffffffffffffffffffffffffffffff1602179055506060820151816003015590505060018054806001018281611490919061175a565b9160005260206000209001600083909190916101000a81548173ffffffffffffffffffffffffffffffffffffffff021916908373ffffffffffffffffffffffffffffffffffffffff16021790555050505050565b6000600180549050905090565b60038181548110151561150057fe5b90600052602060002090016000915054906101000a900473ffffffffffffffffffffffffffffffffffffffff1681565b6000600380549050905090565b600080611548611786565b600085925084915081518380546001816001161561010002031660029004905014151561157857600093506116bd565b600090505b828054600181600116156101000203166002900490508110156116b85781818151811015156115a857fe5b9060200101517f010000000000000000000000000000000000000000000000000000000000000090047f0100000000000000000000000000000000000000000000000000000000000000027effffffffffffffffffffffffffffffffffffffffffffffffffffffffffffff19168382815460018160011615610100020316600290048110151561163457fe5b8154600116156116535790600052602060002090602091828204019190065b9054901a7f0100000000000000000000000000000000000000000000000000000000000000027effffffffffffffffffffffffffffffffffffffffffffffffffffffffffffff19161415156116ab57600093506116bd565b808060010191505061157d565b600193505b50505092915050565b602060405190810160405280600081525090565b828054600181600116156101000203166002900490600052602060002090601f016020900481019282601f1061171b57805160ff1916838001178555611749565b82800160010185558215611749579182015b8281111561174857825182559160200191906001019061172d565b5b509050611756919061179a565b5090565b81548183558181151161178157818360005260206000209182019101611780919061179a565b5b505050565b602060405190810160405280600081525090565b6117bc91905b808211156117b85760008160009055506001016117a0565b5090565b905600a165627a7a72305820914581c7fbfcbf42c0851a2a7dd1ca58344cd38cfe38cc03a873bcce79c3e9490029",
  "source": "pragma solidity ^0.4.18;\r\n\r\nimport \"./StringUtils.sol\";\r\n\r\ncontract BGC {\r\n\r\n  struct Organization {\r\n    string name;\r\n    string regNumber;\r\n    address password;\r\n    uint empCount;\r\n  }\r\n\r\n  struct Employee {\r\n        address empAddr;\r\n        string password;\r\n        string fName;\r\n        string lName;\r\n        string cAddress;\r\n        uint mobile;\r\n        address currentOrgAddr;\r\n        uint experience;\r\n    }\r\n\r\n  mapping(address => Organization) orgs;\r\n  address[] public orgsAddr;\r\n\r\n  mapping(address => Employee) emps;\r\n  address[] public empsAddr;\r\n\r\n  function BGC() public {\r\n  }\r\n\r\n  function isOrgExist(string _name,string _regNumber) public view returns (bool) {\r\n    for(uint i = 0;i < orgsAddr.length; ++ i) {\r\n        if(StringUtils.equal(orgs[orgsAddr[i]].name, _name) && StringUtils.equal(orgs[orgsAddr[i]].regNumber, _regNumber))\r\n            return true;\r\n    }\r\n    return false;\r\n  }\r\n\r\n  function addOrg(string _name,string _regNumber,address _password) public {\r\n    orgs[_password] = Organization(_name,_regNumber,_password,0);\r\n    orgsAddr.push(_password);\r\n  }\r\n\r\n  function getOrg(address ins) public view returns (string,string,address,uint) {\r\n    return (orgs[ ins].name,orgs[ins].regNumber,orgs[ins].password,orgs[ins].empCount);\r\n  }\r\n\r\n  function getOrgSize() public view returns (uint) {\r\n    return orgsAddr.length;\r\n  }\r\n\r\n  function authenticateOrg(string org, address _password) public view returns (bool) {\r\n    return StringUtils.equal(orgs[_password].name,org);\r\n  }\r\n\r\n  ///////////////////////Employee /////////////////\r\n\r\n  function addEmployee(string _password,string _fName,string _lName,string _cAddress,uint _mob,address _org,uint _exp) public {\r\n    emps[msg.sender] = Employee({empAddr:msg.sender,password:_password,fName:_fName,lName:_lName,cAddress:_cAddress,mobile:_mob,currentOrgAddr:_org,experience:_exp});\r\n    empsAddr.push(msg.sender);\r\n  }\r\n\r\n  function getEmployee(address ins) public view returns (string,string,string,uint,address,uint) {\r\n    return (emps[ins].fName,emps[ins].lName,emps[ins].cAddress,emps[ins].mobile,emps[ins].currentOrgAddr,emps[ins].experience);\r\n  }\r\n\r\n  function getEmployeeSize() public view returns (uint) {\r\n    return empsAddr.length;\r\n  }\r\n\r\n  function authenticateEmployee(address empAddr, string _password) public view returns (bool) {\r\n    return StringUtils.equal(emps[empAddr].password,_password);\r\n  }\r\n\r\n}\r\n",
  "sourcePath": "G:\\bgc-app\\contracts\\BGC.sol",
  "compiler": {
    "name": "solc",
    "version": "0.4.18+commit.9cf6e910.Emscripten.clang"
  },
  "schemaVersion": "1.0.1",
  "updatedAt": "2018-04-25T15:41:35.190Z"
}