{
  "contractName": "Integers",
  "abi": [
    {
      "constant": false,
      "inputs": [
        {
          "name": "_value",
          "type": "string"
        }
      ],
      "name": "parseInt",
      "outputs": [
        {
          "name": "_ret",
          "type": "uint256"
        }
      ],
      "payable": false,
      "stateMutability": "nonpayable",
      "type": "function"
    },
    {
      "constant": false,
      "inputs": [
        {
          "name": "_base",
          "type": "uint8"
        }
      ],
      "name": "toByte",
      "outputs": [
        {
          "name": "_ret",
          "type": "bytes1"
        }
      ],
      "payable": false,
      "stateMutability": "nonpayable",
      "type": "function"
    }
  ],
  "bytecode": "0x6060604052341561000f57600080fd5b6103a28061001e6000396000f30060606040526004361061004c576000357c0100000000000000000000000000000000000000000000000000000000900463ffffffff16806342346c5e14610051578063a86b73f0146100b7575b600080fd5b6100a1600480803590602001908201803590602001908080601f0160208091040260200160405190810160405280939291908181526020018383808284378201915050505050509190505061012a565b6040518082815260200191505060405180910390f35b6100d0600480803560ff1690602001909190505061034f565b60405180827effffffffffffffffffffffffffffffffffffffffffffffffffffffffffffff19167effffffffffffffffffffffffffffffffffffffffffffffffffffffffffffff1916815260200191505060405180910390f35b6000610134610362565b60008084925060019150600183510390505b600081101580156101575750825181105b156103475760307f010000000000000000000000000000000000000000000000000000000000000002838281518110151561018e57fe5b9060200101517f010000000000000000000000000000000000000000000000000000000000000090047f0100000000000000000000000000000000000000000000000000000000000000027effffffffffffffffffffffffffffffffffffffffffffffffffffffffffffff1916101580156102a6575060397f010000000000000000000000000000000000000000000000000000000000000002838281518110151561023657fe5b9060200101517f010000000000000000000000000000000000000000000000000000000000000090047f0100000000000000000000000000000000000000000000000000000000000000027effffffffffffffffffffffffffffffffffffffffffffffffffffffffffffff191611155b15156102ae57fe5b81603084838151811015156102bf57fe5b9060200101517f010000000000000000000000000000000000000000000000000000000000000090047f0100000000000000000000000000000000000000000000000000000000000000027f01000000000000000000000000000000000000000000000000000000000000009004030284019350600a82029150808060019003915050610146565b505050919050565b6000600159018281538051915050919050565b6020604051908101604052806000815250905600a165627a7a723058205b98385e5bdfecee39221815042553a9b6c88af82e5121fd446af311a472dcea0029",
  "source": "pragma solidity ^0.4.0;\r\n\r\n/**\r\n * Integers Library\r\n * \r\n * In summary this is a simple library of integer functions which allow a simple\r\n * conversion to and from strings\r\n * \r\n * @author James Lockhart <james@n3tw0rk.co.uk>\r\n */\r\nlibrary Integers {\r\n    /**\r\n     * Parse Int\r\n     * \r\n     * Converts an ASCII string value into an uint as long as the string \r\n     * its self is a valid unsigned integer\r\n     * \r\n     * @param _value The ASCII string to be converted to an unsigned integer\r\n     * @return uint The unsigned value of the ASCII string\r\n     */\r\n    function parseInt(string _value) \r\n        public\r\n        returns (uint _ret) {\r\n        bytes memory _bytesValue = bytes(_value);\r\n        uint j = 1;\r\n        for(uint i = _bytesValue.length-1; i >= 0 && i < _bytesValue.length; i--) {\r\n            assert(_bytesValue[i] >= 48 && _bytesValue[i] <= 57);\r\n            _ret += (uint(_bytesValue[i]) - 48)*j;\r\n            j*=10;\r\n        }\r\n    }\r\n    \r\n    /**\r\n     * To String\r\n     * \r\n     * Converts an unsigned integer to the ASCII string equivalent value\r\n     * \r\n     * @param _base The unsigned integer to be converted to a string\r\n     * @return string The resulting ASCII string value\r\n     */\r\n    function toString(uint _base) \r\n        internal\r\n        returns (string) {\r\n        bytes memory _tmp = new bytes(32);\r\n        uint i;\r\n        for(i = 0;_base > 0;i++) {\r\n            _tmp[i] = byte((_base % 10) + 48);\r\n            _base /= 10;\r\n        }\r\n        bytes memory _real = new bytes(i--);\r\n        for(uint j = 0; j < _real.length; j++) {\r\n            _real[j] = _tmp[i--];\r\n        }\r\n        return string(_real);\r\n    }\r\n\r\n    /**\r\n     * To Byte\r\n     *\r\n     * Convert an 8 bit unsigned integer to a byte\r\n     *\r\n     * @param _base The 8 bit unsigned integer\r\n     * @return byte The byte equivalent\r\n     */\r\n    function toByte(uint8 _base) \r\n        public\r\n        returns (byte _ret) {\r\n        assembly {\r\n            let m_alloc := add(msize(),0x1)\r\n            mstore8(m_alloc, _base)\r\n            _ret := mload(m_alloc)\r\n        }\r\n    }\r\n\r\n    /**\r\n     * To Bytes\r\n     *\r\n     * Converts an unsigned integer to bytes\r\n     *\r\n     * @param _base The integer to be converted to bytes\r\n     * @return bytes The bytes equivalent \r\n     */\r\n    function toBytes(uint _base) \r\n        internal\r\n        returns (bytes _ret) {\r\n        assembly {\r\n            let m_alloc := add(msize(),0x1)\r\n            _ret := mload(m_alloc)\r\n            mstore(_ret, 0x20)\r\n            mstore(add(_ret, 0x20), _base)\r\n        }\r\n    }\r\n}",
  "sourcePath": "G:\\bgc-app\\contracts\\Integers.sol",
  "compiler": {
    "name": "solc",
    "version": "0.4.18+commit.9cf6e910.Emscripten.clang"
  },
  "schemaVersion": "1.0.1",
  "updatedAt": "2018-04-25T15:41:35.191Z"
}